{
  "_format": "hh-sol-artifact-1",
  "contractName": "EmissionToken",
  "sourceName": "contracts/EmissionToken.sol",
  "abi": [
    {
      "inputs": [
        {
          "internalType": "string",
          "name": "name",
          "type": "string"
        },
        {
          "internalType": "string",
          "name": "symbol",
          "type": "string"
        }
      ],
      "stateMutability": "nonpayable",
      "type": "constructor"
    },
    {
      "anonymous": false,
      "inputs": [
        {
          "indexed": true,
          "internalType": "address",
          "name": "owner",
          "type": "address"
        },
        {
          "indexed": true,
          "internalType": "address",
          "name": "spender",
          "type": "address"
        },
        {
          "indexed": false,
          "internalType": "uint256",
          "name": "value",
          "type": "uint256"
        }
      ],
      "name": "Approval",
      "type": "event"
    },
    {
      "anonymous": false,
      "inputs": [
        {
          "indexed": true,
          "internalType": "address",
          "name": "previousOwner",
          "type": "address"
        },
        {
          "indexed": true,
          "internalType": "address",
          "name": "newOwner",
          "type": "address"
        }
      ],
      "name": "OwnershipTransferred",
      "type": "event"
    },
    {
      "anonymous": false,
      "inputs": [
        {
          "indexed": true,
          "internalType": "address",
          "name": "from",
          "type": "address"
        },
        {
          "indexed": true,
          "internalType": "address",
          "name": "to",
          "type": "address"
        },
        {
          "indexed": false,
          "internalType": "uint256",
          "name": "value",
          "type": "uint256"
        }
      ],
      "name": "Transfer",
      "type": "event"
    },
    {
      "inputs": [
        {
          "internalType": "address",
          "name": "addr",
          "type": "address"
        }
      ],
      "name": "addAllowedTransferAddress",
      "outputs": [],
      "stateMutability": "nonpayable",
      "type": "function"
    },
    {
      "inputs": [
        {
          "internalType": "address",
          "name": "minter",
          "type": "address"
        }
      ],
      "name": "addMinter",
      "outputs": [],
      "stateMutability": "nonpayable",
      "type": "function"
    },
    {
      "inputs": [
        {
          "internalType": "address",
          "name": "owner",
          "type": "address"
        },
        {
          "internalType": "address",
          "name": "spender",
          "type": "address"
        }
      ],
      "name": "allowance",
      "outputs": [
        {
          "internalType": "uint256",
          "name": "",
          "type": "uint256"
        }
      ],
      "stateMutability": "view",
      "type": "function"
    },
    {
      "inputs": [
        {
          "internalType": "address",
          "name": "spender",
          "type": "address"
        },
        {
          "internalType": "uint256",
          "name": "amount",
          "type": "uint256"
        }
      ],
      "name": "approve",
      "outputs": [
        {
          "internalType": "bool",
          "name": "",
          "type": "bool"
        }
      ],
      "stateMutability": "nonpayable",
      "type": "function"
    },
    {
      "inputs": [
        {
          "internalType": "address",
          "name": "account",
          "type": "address"
        }
      ],
      "name": "balanceOf",
      "outputs": [
        {
          "internalType": "uint256",
          "name": "",
          "type": "uint256"
        }
      ],
      "stateMutability": "view",
      "type": "function"
    },
    {
      "inputs": [
        {
          "internalType": "uint256",
          "name": "amount",
          "type": "uint256"
        }
      ],
      "name": "burn",
      "outputs": [],
      "stateMutability": "nonpayable",
      "type": "function"
    },
    {
      "inputs": [
        {
          "internalType": "address",
          "name": "account",
          "type": "address"
        },
        {
          "internalType": "uint256",
          "name": "amount",
          "type": "uint256"
        }
      ],
      "name": "burnFrom",
      "outputs": [],
      "stateMutability": "nonpayable",
      "type": "function"
    },
    {
      "inputs": [],
      "name": "decimals",
      "outputs": [
        {
          "internalType": "uint8",
          "name": "",
          "type": "uint8"
        }
      ],
      "stateMutability": "view",
      "type": "function"
    },
    {
      "inputs": [
        {
          "internalType": "address",
          "name": "spender",
          "type": "address"
        },
        {
          "internalType": "uint256",
          "name": "subtractedValue",
          "type": "uint256"
        }
      ],
      "name": "decreaseAllowance",
      "outputs": [
        {
          "internalType": "bool",
          "name": "",
          "type": "bool"
        }
      ],
      "stateMutability": "nonpayable",
      "type": "function"
    },
    {
      "inputs": [],
      "name": "getHighestBalanceAddress",
      "outputs": [
        {
          "internalType": "address",
          "name": "",
          "type": "address"
        }
      ],
      "stateMutability": "view",
      "type": "function"
    },
    {
      "inputs": [
        {
          "internalType": "address",
          "name": "spender",
          "type": "address"
        },
        {
          "internalType": "uint256",
          "name": "addedValue",
          "type": "uint256"
        }
      ],
      "name": "increaseAllowance",
      "outputs": [
        {
          "internalType": "bool",
          "name": "",
          "type": "bool"
        }
      ],
      "stateMutability": "nonpayable",
      "type": "function"
    },
    {
      "inputs": [
        {
          "internalType": "address",
          "name": "to",
          "type": "address"
        },
        {
          "internalType": "uint256",
          "name": "amount",
          "type": "uint256"
        }
      ],
      "name": "mint",
      "outputs": [],
      "stateMutability": "nonpayable",
      "type": "function"
    },
    {
      "inputs": [],
      "name": "name",
      "outputs": [
        {
          "internalType": "string",
          "name": "",
          "type": "string"
        }
      ],
      "stateMutability": "view",
      "type": "function"
    },
    {
      "inputs": [],
      "name": "owner",
      "outputs": [
        {
          "internalType": "address",
          "name": "",
          "type": "address"
        }
      ],
      "stateMutability": "view",
      "type": "function"
    },
    {
      "inputs": [
        {
          "internalType": "address",
          "name": "addr",
          "type": "address"
        }
      ],
      "name": "removeAllowedTransferAddress",
      "outputs": [],
      "stateMutability": "nonpayable",
      "type": "function"
    },
    {
      "inputs": [
        {
          "internalType": "address",
          "name": "minter",
          "type": "address"
        }
      ],
      "name": "removeMinter",
      "outputs": [],
      "stateMutability": "nonpayable",
      "type": "function"
    },
    {
      "inputs": [],
      "name": "renounceOwnership",
      "outputs": [],
      "stateMutability": "nonpayable",
      "type": "function"
    },
    {
      "inputs": [],
      "name": "symbol",
      "outputs": [
        {
          "internalType": "string",
          "name": "",
          "type": "string"
        }
      ],
      "stateMutability": "view",
      "type": "function"
    },
    {
      "inputs": [],
      "name": "totalSupply",
      "outputs": [
        {
          "internalType": "uint256",
          "name": "",
          "type": "uint256"
        }
      ],
      "stateMutability": "view",
      "type": "function"
    },
    {
      "inputs": [
        {
          "internalType": "address",
          "name": "recipient",
          "type": "address"
        },
        {
          "internalType": "uint256",
          "name": "amount",
          "type": "uint256"
        }
      ],
      "name": "transfer",
      "outputs": [
        {
          "internalType": "bool",
          "name": "",
          "type": "bool"
        }
      ],
      "stateMutability": "nonpayable",
      "type": "function"
    },
    {
      "inputs": [
        {
          "internalType": "address",
          "name": "from",
          "type": "address"
        },
        {
          "internalType": "address",
          "name": "to",
          "type": "address"
        },
        {
          "internalType": "uint256",
          "name": "amount",
          "type": "uint256"
        }
      ],
      "name": "transferFrom",
      "outputs": [
        {
          "internalType": "bool",
          "name": "",
          "type": "bool"
        }
      ],
      "stateMutability": "nonpayable",
      "type": "function"
    },
    {
      "inputs": [
        {
          "internalType": "address",
          "name": "newOwner",
          "type": "address"
        }
      ],
      "name": "transferOwnership",
      "outputs": [],
      "stateMutability": "nonpayable",
      "type": "function"
    }
  ],
  "bytecode": "0x60806040523480156200001157600080fd5b5060405162002822380380620028228339818101604052810190620000379190620003b0565b818181600390805190602001906200005192919062000163565b5080600490805190602001906200006a92919062000163565b5050506200008d620000816200009560201b60201c565b6200009d60201b60201c565b50506200049a565b600033905090565b6000600560009054906101000a900473ffffffffffffffffffffffffffffffffffffffff16905081600560006101000a81548173ffffffffffffffffffffffffffffffffffffffff021916908373ffffffffffffffffffffffffffffffffffffffff1602179055508173ffffffffffffffffffffffffffffffffffffffff168173ffffffffffffffffffffffffffffffffffffffff167f8be0079c531659141344cd1fd0a4f28419497f9722a3daafe3b4186f6b6457e060405160405180910390a35050565b828054620001719062000464565b90600052602060002090601f016020900481019282620001955760008555620001e1565b82601f10620001b057805160ff1916838001178555620001e1565b82800160010185558215620001e1579182015b82811115620001e0578251825591602001919060010190620001c3565b5b509050620001f09190620001f4565b5090565b5b808211156200020f576000816000905550600101620001f5565b5090565b6000604051905090565b600080fd5b600080fd5b600080fd5b600080fd5b6000601f19601f8301169050919050565b7f4e487b7100000000000000000000000000000000000000000000000000000000600052604160045260246000fd5b6200027c8262000231565b810181811067ffffffffffffffff821117156200029e576200029d62000242565b5b80604052505050565b6000620002b362000213565b9050620002c1828262000271565b919050565b600067ffffffffffffffff821115620002e457620002e362000242565b5b620002ef8262000231565b9050602081019050919050565b60005b838110156200031c578082015181840152602081019050620002ff565b838111156200032c576000848401525b50505050565b6000620003496200034384620002c6565b620002a7565b9050828152602081018484840111156200036857620003676200022c565b5b62000375848285620002fc565b509392505050565b600082601f83011262000395576200039462000227565b5b8151620003a784826020860162000332565b91505092915050565b60008060408385031215620003ca57620003c96200021d565b5b600083015167ffffffffffffffff811115620003eb57620003ea62000222565b5b620003f9858286016200037d565b925050602083015167ffffffffffffffff8111156200041d576200041c62000222565b5b6200042b858286016200037d565b9150509250929050565b7f4e487b7100000000000000000000000000000000000000000000000000000000600052602260045260246000fd5b600060028204905060018216806200047d57607f821691505b6020821081141562000494576200049362000435565b5b50919050565b61237880620004aa6000396000f3fe608060405234801561001057600080fd5b50600436106101425760003560e01c806370a08231116100b8578063983b2d561161007c578063983b2d5614610351578063a457c2d71461036d578063a9059cbb1461039d578063dd62ed3e146103cd578063e70a49a9146103fd578063f2fde38b1461041957610142565b806370a08231146102bf578063715018a6146102ef57806379cc6790146102f95780638da5cb5b1461031557806395d89b411461033357610142565b80633092afd51161010a5780633092afd514610201578063313ce5671461021d578063395093511461023b57806340c10f191461026b57806342966c6814610287578063527864cd146102a357610142565b806306fdde0314610147578063095ea7b3146101655780630da1ae211461019557806318160ddd146101b357806323b872dd146101d1575b600080fd5b61014f610435565b60405161015c91906116e2565b60405180910390f35b61017f600480360381019061017a919061179d565b6104c7565b60405161018c91906117f8565b60405180910390f35b61019d6104ea565b6040516101aa9190611822565b60405180910390f35b6101bb610558565b6040516101c8919061184c565b60405180910390f35b6101eb60048036038101906101e69190611867565b610562565b6040516101f891906117f8565b60405180910390f35b61021b600480360381019061021691906118ba565b610591565b005b6102256105b1565b6040516102329190611903565b60405180910390f35b6102556004803603810190610250919061179d565b6105ba565b60405161026291906117f8565b60405180910390f35b6102856004803603810190610280919061179d565b6105f1565b005b6102a1600480360381019061029c919061191e565b610652565b005b6102bd60048036038101906102b891906118ba565b610666565b005b6102d960048036038101906102d491906118ba565b610686565b6040516102e6919061184c565b60405180910390f35b6102f76106ce565b005b610313600480360381019061030e919061179d565b6106e2565b005b61031d610702565b60405161032a9190611822565b60405180910390f35b61033b61072c565b60405161034891906116e2565b60405180910390f35b61036b600480360381019061036691906118ba565b6107be565b005b6103876004803603810190610382919061179d565b6107de565b60405161039491906117f8565b60405180910390f35b6103b760048036038101906103b2919061179d565b610855565b6040516103c491906117f8565b60405180910390f35b6103e760048036038101906103e2919061194b565b61090f565b6040516103f4919061184c565b60405180910390f35b610417600480360381019061041291906118ba565b610996565b005b610433600480360381019061042e91906118ba565b6109b6565b005b606060038054610444906119ba565b80601f0160208091040260200160405190810160405280929190818152602001828054610470906119ba565b80156104bd5780601f10610492576101008083540402835291602001916104bd565b820191906000526020600020905b8154815290600101906020018083116104a057829003601f168201915b5050505050905090565b6000806104d2610a3a565b90506104df818585610a42565b600191505092915050565b600080600090506000805b6104ff6006610c0d565b81101561054f57600061051c826006610c2290919063ffffffff16565b9050600061052982610686565b90508381111561053a578093508194505b5050808061054790611a1b565b9150506104f5565b50819250505090565b6000600254905090565b60008061056d610a3a565b905061057a858285610c3c565b610585858585610cc8565b60019150509392505050565b610599610f40565b6105ad816006610fbe90919063ffffffff16565b5050565b60006012905090565b6000806105c5610a3a565b90506105e68185856105d7858961090f565b6105e19190611a64565b610a42565b600191505092915050565b610605336006610fee90919063ffffffff16565b610644576040517f08c379a000000000000000000000000000000000000000000000000000000000815260040161063b90611b06565b60405180910390fd5b61064e828261101e565b5050565b61066361065d610a3a565b82611175565b50565b61066e610f40565b61068281600861134390919063ffffffff16565b5050565b60008060008373ffffffffffffffffffffffffffffffffffffffff1673ffffffffffffffffffffffffffffffffffffffff168152602001908152602001600020549050919050565b6106d6610f40565b6106e06000611373565b565b6106f4826106ee610a3a565b83610c3c565b6106fe8282611175565b5050565b6000600560009054906101000a900473ffffffffffffffffffffffffffffffffffffffff16905090565b60606004805461073b906119ba565b80601f0160208091040260200160405190810160405280929190818152602001828054610767906119ba565b80156107b45780601f10610789576101008083540402835291602001916107b4565b820191906000526020600020905b81548152906001019060200180831161079757829003601f168201915b5050505050905090565b6107c6610f40565b6107da81600661134390919063ffffffff16565b5050565b6000806107e9610a3a565b905060006107f7828661090f565b90508381101561083c576040517f08c379a000000000000000000000000000000000000000000000000000000000815260040161083390611b98565b60405180910390fd5b6108498286868403610a42565b60019250505092915050565b600061086b336008610fee90919063ffffffff16565b6108aa576040517f08c379a00000000000000000000000000000000000000000000000000000000081526004016108a190611c2a565b60405180910390fd5b6108be836008610fee90919063ffffffff16565b6108fd576040517f08c379a00000000000000000000000000000000000000000000000000000000081526004016108f490611cbc565b60405180910390fd5b6109078383611439565b905092915050565b6000600160008473ffffffffffffffffffffffffffffffffffffffff1673ffffffffffffffffffffffffffffffffffffffff16815260200190815260200160002060008373ffffffffffffffffffffffffffffffffffffffff1673ffffffffffffffffffffffffffffffffffffffff16815260200190815260200160002054905092915050565b61099e610f40565b6109b2816008610fbe90919063ffffffff16565b5050565b6109be610f40565b600073ffffffffffffffffffffffffffffffffffffffff168173ffffffffffffffffffffffffffffffffffffffff161415610a2e576040517f08c379a0000000000000000000000000000000000000000000000000000000008152600401610a2590611d4e565b60405180910390fd5b610a3781611373565b50565b600033905090565b600073ffffffffffffffffffffffffffffffffffffffff168373ffffffffffffffffffffffffffffffffffffffff161415610ab2576040517f08c379a0000000000000000000000000000000000000000000000000000000008152600401610aa990611de0565b60405180910390fd5b600073ffffffffffffffffffffffffffffffffffffffff168273ffffffffffffffffffffffffffffffffffffffff161415610b22576040517f08c379a0000000000000000000000000000000000000000000000000000000008152600401610b1990611e72565b60405180910390fd5b80600160008573ffffffffffffffffffffffffffffffffffffffff1673ffffffffffffffffffffffffffffffffffffffff16815260200190815260200160002060008473ffffffffffffffffffffffffffffffffffffffff1673ffffffffffffffffffffffffffffffffffffffff168152602001908152602001600020819055508173ffffffffffffffffffffffffffffffffffffffff168373ffffffffffffffffffffffffffffffffffffffff167f8c5be1e5ebec7d5bd14f71427d1e84f3dd0314c0f7b2291e5b200ac8c7c3b92583604051610c00919061184c565b60405180910390a3505050565b6000610c1b8260000161145c565b9050919050565b6000610c31836000018361146d565b60001c905092915050565b6000610c48848461090f565b90507fffffffffffffffffffffffffffffffffffffffffffffffffffffffffffffffff8114610cc25781811015610cb4576040517f08c379a0000000000000000000000000000000000000000000000000000000008152600401610cab90611ede565b60405180910390fd5b610cc18484848403610a42565b5b50505050565b600073ffffffffffffffffffffffffffffffffffffffff168373ffffffffffffffffffffffffffffffffffffffff161415610d38576040517f08c379a0000000000000000000000000000000000000000000000000000000008152600401610d2f90611f70565b60405180910390fd5b600073ffffffffffffffffffffffffffffffffffffffff168273ffffffffffffffffffffffffffffffffffffffff161415610da8576040517f08c379a0000000000000000000000000000000000000000000000000000000008152600401610d9f90612002565b60405180910390fd5b610db3838383611498565b60008060008573ffffffffffffffffffffffffffffffffffffffff1673ffffffffffffffffffffffffffffffffffffffff16815260200190815260200160002054905081811015610e39576040517f08c379a0000000000000000000000000000000000000000000000000000000008152600401610e3090612094565b60405180910390fd5b8181036000808673ffffffffffffffffffffffffffffffffffffffff1673ffffffffffffffffffffffffffffffffffffffff16815260200190815260200160002081905550816000808573ffffffffffffffffffffffffffffffffffffffff1673ffffffffffffffffffffffffffffffffffffffff168152602001908152602001600020600082825401925050819055508273ffffffffffffffffffffffffffffffffffffffff168473ffffffffffffffffffffffffffffffffffffffff167fddf252ad1be2c89b69c2b068fc378daa952ba7f163c4a11628f55a4df523b3ef84604051610f27919061184c565b60405180910390a3610f3a84848461149d565b50505050565b610f48610a3a565b73ffffffffffffffffffffffffffffffffffffffff16610f66610702565b73ffffffffffffffffffffffffffffffffffffffff1614610fbc576040517f08c379a0000000000000000000000000000000000000000000000000000000008152600401610fb390612100565b60405180910390fd5b565b6000610fe6836000018373ffffffffffffffffffffffffffffffffffffffff1660001b6114a2565b905092915050565b6000611016836000018373ffffffffffffffffffffffffffffffffffffffff1660001b6115b6565b905092915050565b600073ffffffffffffffffffffffffffffffffffffffff168273ffffffffffffffffffffffffffffffffffffffff16141561108e576040517f08c379a00000000000000000000000000000000000000000000000000000000081526004016110859061216c565b60405180910390fd5b61109a60008383611498565b80600260008282546110ac9190611a64565b92505081905550806000808473ffffffffffffffffffffffffffffffffffffffff1673ffffffffffffffffffffffffffffffffffffffff168152602001908152602001600020600082825401925050819055508173ffffffffffffffffffffffffffffffffffffffff16600073ffffffffffffffffffffffffffffffffffffffff167fddf252ad1be2c89b69c2b068fc378daa952ba7f163c4a11628f55a4df523b3ef8360405161115d919061184c565b60405180910390a36111716000838361149d565b5050565b600073ffffffffffffffffffffffffffffffffffffffff168273ffffffffffffffffffffffffffffffffffffffff1614156111e5576040517f08c379a00000000000000000000000000000000000000000000000000000000081526004016111dc906121fe565b60405180910390fd5b6111f182600083611498565b60008060008473ffffffffffffffffffffffffffffffffffffffff1673ffffffffffffffffffffffffffffffffffffffff16815260200190815260200160002054905081811015611277576040517f08c379a000000000000000000000000000000000000000000000000000000000815260040161126e90612290565b60405180910390fd5b8181036000808573ffffffffffffffffffffffffffffffffffffffff1673ffffffffffffffffffffffffffffffffffffffff1681526020019081526020016000208190555081600260008282540392505081905550600073ffffffffffffffffffffffffffffffffffffffff168373ffffffffffffffffffffffffffffffffffffffff167fddf252ad1be2c89b69c2b068fc378daa952ba7f163c4a11628f55a4df523b3ef8460405161132a919061184c565b60405180910390a361133e8360008461149d565b505050565b600061136b836000018373ffffffffffffffffffffffffffffffffffffffff1660001b6115d9565b905092915050565b6000600560009054906101000a900473ffffffffffffffffffffffffffffffffffffffff16905081600560006101000a81548173ffffffffffffffffffffffffffffffffffffffff021916908373ffffffffffffffffffffffffffffffffffffffff1602179055508173ffffffffffffffffffffffffffffffffffffffff168173ffffffffffffffffffffffffffffffffffffffff167f8be0079c531659141344cd1fd0a4f28419497f9722a3daafe3b4186f6b6457e060405160405180910390a35050565b600080611444610a3a565b9050611451818585610cc8565b600191505092915050565b600081600001805490509050919050565b6000826000018281548110611485576114846122b0565b5b9060005260206000200154905092915050565b505050565b505050565b600080836001016000848152602001908152602001600020549050600081146115aa5760006001826114d491906122df565b90506000600186600001805490506114ec91906122df565b905081811461155b57600086600001828154811061150d5761150c6122b0565b5b9060005260206000200154905080876000018481548110611531576115306122b0565b5b90600052602060002001819055508387600101600083815260200190815260200160002081905550505b8560000180548061156f5761156e612313565b5b6001900381819060005260206000200160009055905585600101600086815260200190815260200160002060009055600193505050506115b0565b60009150505b92915050565b600080836001016000848152602001908152602001600020541415905092915050565b60006115e583836115b6565b61163e578260000182908060018154018082558091505060019003906000526020600020016000909190919091505582600001805490508360010160008481526020019081526020016000208190555060019050611643565b600090505b92915050565b600081519050919050565b600082825260208201905092915050565b60005b83811015611683578082015181840152602081019050611668565b83811115611692576000848401525b50505050565b6000601f19601f8301169050919050565b60006116b482611649565b6116be8185611654565b93506116ce818560208601611665565b6116d781611698565b840191505092915050565b600060208201905081810360008301526116fc81846116a9565b905092915050565b600080fd5b600073ffffffffffffffffffffffffffffffffffffffff82169050919050565b600061173482611709565b9050919050565b61174481611729565b811461174f57600080fd5b50565b6000813590506117618161173b565b92915050565b6000819050919050565b61177a81611767565b811461178557600080fd5b50565b60008135905061179781611771565b92915050565b600080604083850312156117b4576117b3611704565b5b60006117c285828601611752565b92505060206117d385828601611788565b9150509250929050565b60008115159050919050565b6117f2816117dd565b82525050565b600060208201905061180d60008301846117e9565b92915050565b61181c81611729565b82525050565b60006020820190506118376000830184611813565b92915050565b61184681611767565b82525050565b6000602082019050611861600083018461183d565b92915050565b6000806000606084860312156118805761187f611704565b5b600061188e86828701611752565b935050602061189f86828701611752565b92505060406118b086828701611788565b9150509250925092565b6000602082840312156118d0576118cf611704565b5b60006118de84828501611752565b91505092915050565b600060ff82169050919050565b6118fd816118e7565b82525050565b600060208201905061191860008301846118f4565b92915050565b60006020828403121561193457611933611704565b5b600061194284828501611788565b91505092915050565b6000806040838503121561196257611961611704565b5b600061197085828601611752565b925050602061198185828601611752565b9150509250929050565b7f4e487b7100000000000000000000000000000000000000000000000000000000600052602260045260246000fd5b600060028204905060018216806119d257607f821691505b602082108114156119e6576119e561198b565b5b50919050565b7f4e487b7100000000000000000000000000000000000000000000000000000000600052601160045260246000fd5b6000611a2682611767565b91507fffffffffffffffffffffffffffffffffffffffffffffffffffffffffffffffff821415611a5957611a586119ec565b5b600182019050919050565b6000611a6f82611767565b9150611a7a83611767565b9250827fffffffffffffffffffffffffffffffffffffffffffffffffffffffffffffffff03821115611aaf57611aae6119ec565b5b828201905092915050565b7f43616c6c6572206973206e6f742061206d696e74657200000000000000000000600082015250565b6000611af0601683611654565b9150611afb82611aba565b602082019050919050565b60006020820190508181036000830152611b1f81611ae3565b9050919050565b7f45524332303a2064656372656173656420616c6c6f77616e63652062656c6f7760008201527f207a65726f000000000000000000000000000000000000000000000000000000602082015250565b6000611b82602583611654565b9150611b8d82611b26565b604082019050919050565b60006020820190508181036000830152611bb181611b75565b9050919050565b7f5472616e73666572206e6f7420616c6c6f77656420666f72207468697320616460008201527f6472657373000000000000000000000000000000000000000000000000000000602082015250565b6000611c14602583611654565b9150611c1f82611bb8565b604082019050919050565b60006020820190508181036000830152611c4381611c07565b9050919050565b7f5472616e73666572206e6f7420616c6c6f77656420746f20746869732061646460008201527f7265737300000000000000000000000000000000000000000000000000000000602082015250565b6000611ca6602483611654565b9150611cb182611c4a565b604082019050919050565b60006020820190508181036000830152611cd581611c99565b9050919050565b7f4f776e61626c653a206e6577206f776e657220697320746865207a65726f206160008201527f6464726573730000000000000000000000000000000000000000000000000000602082015250565b6000611d38602683611654565b9150611d4382611cdc565b604082019050919050565b60006020820190508181036000830152611d6781611d2b565b9050919050565b7f45524332303a20617070726f76652066726f6d20746865207a65726f2061646460008201527f7265737300000000000000000000000000000000000000000000000000000000602082015250565b6000611dca602483611654565b9150611dd582611d6e565b604082019050919050565b60006020820190508181036000830152611df981611dbd565b9050919050565b7f45524332303a20617070726f766520746f20746865207a65726f20616464726560008201527f7373000000000000000000000000000000000000000000000000000000000000602082015250565b6000611e5c602283611654565b9150611e6782611e00565b604082019050919050565b60006020820190508181036000830152611e8b81611e4f565b9050919050565b7f45524332303a20696e73756666696369656e7420616c6c6f77616e6365000000600082015250565b6000611ec8601d83611654565b9150611ed382611e92565b602082019050919050565b60006020820190508181036000830152611ef781611ebb565b9050919050565b7f45524332303a207472616e736665722066726f6d20746865207a65726f20616460008201527f6472657373000000000000000000000000000000000000000000000000000000602082015250565b6000611f5a602583611654565b9150611f6582611efe565b604082019050919050565b60006020820190508181036000830152611f8981611f4d565b9050919050565b7f45524332303a207472616e7366657220746f20746865207a65726f206164647260008201527f6573730000000000000000000000000000000000000000000000000000000000602082015250565b6000611fec602383611654565b9150611ff782611f90565b604082019050919050565b6000602082019050818103600083015261201b81611fdf565b9050919050565b7f45524332303a207472616e7366657220616d6f756e742065786365656473206260008201527f616c616e63650000000000000000000000000000000000000000000000000000602082015250565b600061207e602683611654565b915061208982612022565b604082019050919050565b600060208201905081810360008301526120ad81612071565b9050919050565b7f4f776e61626c653a2063616c6c6572206973206e6f7420746865206f776e6572600082015250565b60006120ea602083611654565b91506120f5826120b4565b602082019050919050565b60006020820190508181036000830152612119816120dd565b9050919050565b7f45524332303a206d696e7420746f20746865207a65726f206164647265737300600082015250565b6000612156601f83611654565b915061216182612120565b602082019050919050565b6000602082019050818103600083015261218581612149565b9050919050565b7f45524332303a206275726e2066726f6d20746865207a65726f2061646472657360008201527f7300000000000000000000000000000000000000000000000000000000000000602082015250565b60006121e8602183611654565b91506121f38261218c565b604082019050919050565b60006020820190508181036000830152612217816121db565b9050919050565b7f45524332303a206275726e20616d6f756e7420657863656564732062616c616e60008201527f6365000000000000000000000000000000000000000000000000000000000000602082015250565b600061227a602283611654565b91506122858261221e565b604082019050919050565b600060208201905081810360008301526122a98161226d565b9050919050565b7f4e487b7100000000000000000000000000000000000000000000000000000000600052603260045260246000fd5b60006122ea82611767565b91506122f583611767565b925082821015612308576123076119ec565b5b828203905092915050565b7f4e487b7100000000000000000000000000000000000000000000000000000000600052603160045260246000fdfea2646970667358221220dc938e7cd0e072aaefbd4cc9345c1ee3f0790d2f993342b19ad5ecb96d0e792a64736f6c63430008090033",
  "linkReferences": {},
  "deployedLinkReferences": {}
}